:020000040800F2
:10000000C006002045010008BB2E0008D5260008C8
:10001000B92E0008230B0008E5320008000000009C
:10002000000000000000000000000000BF2E0008DB
:100030005B0B000800000000BD2E0008C12E000868
:100040005F0100085F0100085F0100085F01000810
:100050005F0100085F0100085F0100085F01000800
:100060005F0100085F0100085F0100085F010008F0
:100070005F0100085F0100085F0100085F010008E0
:100080005F010008250B00085F0100085F01000800
:100090005F0100085F0100085F0100085F010008C0
:1000A0005F0100085F0100085F0100085F010008B0
:1000B0005F010008252F0008312F00085F010008AC
:1000C0005F0100085F0100085F0100085F01000890
:1000D0005F0100085F010008D93200085F010008D5
:1000E0005F0100085F0100085F0100085F01000870
:1000F0005F0100085F0100085F0100085F01000860
:100100005F0100085F0100085F0100085F0100084F
:100110005F0100085F0100085F0100085F0100083F
:100120005F0100085F0100085F0100085F0100082F
:10013000DFF80CD000F092FC00480047ED510008B9
:10014000C00600200648804706480047FEE7FEE755
:10015000FEE7FEE7FEE7FEE7FEE7FEE7FEE7FEE777
:10016000232F0008310100082DE9F0410024061B6F
:10017000254671F1000605DA01240027D0EB0700BF
:1001800067EB0101161E73F1000605DA0027D2EBBA
:100190000702012567EB030300F033FB86460E469A
:1001A00017469C46AC4204D00025D0EB050E65EB0B
:1001B000010624B10020D2EB000760EB030C70466F
:1001C00031463A466346BDE8F081202A04DB203AF6
:1001D00021FA02F00021704721FA02F3D040C2F167
:1001E00020029140084319467047D2B201E000F85E
:1001F000012B491EFBD270470022F6E710B51346CB
:100200000A4604461946FFF7F0FF204610BD30B5F8
:1002100004460020034600E05B1C934203D2E05CEE
:10022000CD5C401BF8D030BDF0B480EA0102D40FA1
:100230004200B2EB410F02D20246084611464A0084
:1002400042D0C30DDDB2C1F3C752AD1A202D35DA4D
:10025000C1F3160141F4000204B15242C5F1200677
:1002600002FA06F12A411044B3EBD05F23D0C4B1A7
:10027000012DA0EBC35009DCF0BC4FF0004202EAB4
:10028000C352DBB200F5000000F016BB400000F1E5
:10029000807000EBC350A0F1807040EAD17049003B
:1002A00009E0490841EAC071A0EBC35000F5000025
:1002B000400800EBC350F0BC00F0F5BA61420122E7
:1002C00002EB4101001BF6E7F0BC704781F00041F2
:1002D000AAE780F00040A7E780EA010210B502F02B
:1002E0000043400022D04A001FD0010E01EB1261F2
:1002F000C0F35600C2F3560240F4000042F400027C
:10030000A0FB022000047F39140400D0401C50EAF6
:10031000124001D44000491EC2B20C0604EBD010BA
:10032000401C4008802A02D003E0002010BD20F0CD
:100330000100002900DA0020184310BD30B480EA23
:10034000010202F0004530F0004221F0004013D0DD
:1003500090B1C30DD40DC2F31601C0F31600E41A18
:1003600041F4000140F400027D34914201D3641C49
:1003700000E04900002C02DA30BC002070474FF446
:1003800000000023914201D3891A034340084FEA39
:100390004101F7D151B1914202D14FF0004105E046
:1003A00002D24FF0010101E06FF0010103EBC450F4
:1003B000284430BC00F077BA420005D0C0F3C752E1
:1003C0005242914201DC0020704700EBC15070475F
:1003D0002DE9FE4F804681EA0300C00F0C460090D5
:1003E00021F0004123F00045B8EB0200A94105D2FD
:1003F0004046214690461C460B46024623F00040EC
:10040000104347D0270DC7F30A00C3F30A510290E7
:10041000401A019040286BDAC3F3130040F4801BAC
:100420000098924620B10023D2EB030A63EB0B0B3A
:1004300001985946C0F14002504600F013FA0646B2
:100440000D4650465946019A00F01BFA10EB080081
:100450006141002487EA115284EAE7731A4340D0CD
:10046000009A62B3019A012A4FEA075215DC001B79
:1004700061EB02014FF0004202EA0752CDE900426F
:10048000001C41F5801132462B4600F052FA03B0B1
:10049000BDE8F08F40462146F9E7001B61EB020101
:1004A000001C41F5801300185B412018A2F50017CD
:1004B00047EB030140EAD570B6196D4111E06D08B4
:1004C0004FEA360645EAC0754FEA0752001B61EB5A
:1004D0000201001C41F5801149084FEA3000001963
:1004E000514132462B4603B0BDE8F04F00F012BA3E
:1004F0000098012240000023D0EB020263EBE0737E
:10050000009821464FEAE074B8EB000061EB04016B
:10051000E9E783F000435BE781F0004158E72DE90C
:10052000FE4F81EA030404F0004421F000410094EE
:100530004FF0000B23F0004350EA01045ED052EA72
:1005400003045BD0C3F30A54C1F30A552C44A4F24C
:10055000F3340194A0FB0254C1F3130141F4801160
:10056000C3F3130343F4801301FB024400FB034E67
:10057000840A970A44EA815447EA8357A4FB076830
:1005800002958D0A05FB07854FEA932C04FB0C545A
:100590002705029D4FEA065847EA1637B5EB0805CE
:1005A0006EEB070C870E920E47EA811742EA831220
:1005B000A7FB0201B6EB0B0164EB00042B0D43EA31
:1005C0000C335E1844EB1C50DA465146E7FB02013F
:1005D000C5F313044FEA0B3343EA14534FEA0432D2
:1005E000019C43EA0603A4F10C040294009CCDE9AB
:1005F00000B400F09EF903B0BDE8F08F0020014682
:10060000F9E72DE9F04D81EA030404F0004B21F0F5
:10061000004514464FF0000A23F0004150EA05025D
:1006200020D054EA01021DD0C5F30A570246C5F393
:100630001303C1F31300C1F30A5640F4801543F4C9
:100640008013A7EB0608101BD64608F2FD3873EBA3
:10065000050002D308F1010801E092185B41B8F1EE
:10066000000F03DA00200146BDE8F08D00204FF4B2
:100670008011064684460EE0171B73EB050705D371
:10068000121B63EB050306434CEA010C49084FEAD1
:10069000300092185B4150EA0107EDD152EA0300A5
:1006A00012D082EA040083EA0501084305D0101B3A
:1006B000AB4106D20122002306E000224FF00043A6
:1006C00002E06FF0010253101AEB06004CEB0851E8
:1006D00010EB0A0041EB0B01BDE8F04D00F01AB938
:1006E000C10F80EAE0700844CA079623002100F099
:1006F000E3B896230022114600F0DEB80EB5C10F14
:1007000080EAE0700844CA07002140F233438DE8D4
:100710000E000A460B4600F00CF903B000BD00F0D5
:10072000004220F00040C10DC0F3160040F400006C
:100730007F2901DA00207047962903DCC1F1960178
:10074000C84001E096398840002AF4D04042704702
:1007500020F00040C10DC0F3160040F400007F29D6
:1007600001DA00207047962903DCC1F19601C840E8
:10077000704796398840704700F0004230F00040E2
:100780000AD0C10D01F56071C0F3160042EA0151B3
:10079000C20840071143704700200146704701F02E
:1007A000004330B421F0004150EA010206D00A0DA6
:1007B000A2F56072C1F31301002A02DC30BC0020F4
:1007C0007047440F44EAC104C100E01830BC00EB9C
:1007D000C25000F068B830B50B4601460020202218
:1007E000012409E021FA02F59D4205D303FA02F53E
:1007F000491B04FA02F52844151EA2F10102F1DC9E
:1008000030BD2DE9F05F0546002092469B468846A4
:100810000646814640241BE028464146474622467C
:10082000FFF7D3FC53465A46C01A914110D31146E4
:100830001846224600F016F82D1A67EB01084F46BD
:1008400022460120002100F00DF817EB00094E416F
:10085000201EA4F10104DFDC484631462A46434607
:10086000BDE8F09F202A04DB203A00FA02F10020C4
:1008700070479140C2F1200320FA03F319439040DE
:100880007047202A06DBCB17203A41FA02F043EAF0
:10089000E07306E041FA02F3D040C2F12002914039
:1008A0000843194670470029A8BF7047401C4900FB
:1008B00008BF20F00100704710B4B0FA80FC00FAC5
:1008C0000CF050EA010404BF10BC704749B1CCF1F0
:1008D000200421FA04F411FA0CF118BF012121437C
:1008E0000843A3EB0C01CB1D4FEA00614FEA102037
:1008F00042BF002010BC704700EBC35010440029D9
:10090000A4BF10BC7047401C490008BF20F0010084
:1009100010BC704710B5141E73F1000408DA401CB7
:1009200041F1000192185B411A4301D120F001000E
:1009300010BD2DE9F04D92469B4611B1B1FA81F2FE
:1009400002E0B0FA80F220329046FFF78BFF0446B7
:100950000F4640EA0A0041EA0B0153465A46084353
:1009600013D0114653EA010019D0C8F14002504695
:10097000FFF72BFC05460E46504659464246FFF708
:1009800071FF084305D0012004E020463946BDE848
:10099000F08D0020054346EAE0762C4337430A9861
:1009A0006305E40AA0EB08000022FD0A44EA47546C
:1009B0000A3002D500200146E9E701051019694116
:1009C000DDE9084500196941BDE8F04DA2E770B5C1
:1009D00021F0004303430CD0C1F30A550024D5EBAA
:1009E000040564EB0403D617AD1AB34102DB002003
:1009F000014670BD201841EB025170BDC1F30A528F
:100A0000C1F3130140F2FF3341F480119A4202DA3C
:100A100000200146704740F233439A42A2F233422B
:100A200002DC5242FFF7D1BBFFF71CBF30B5041EFA
:100A300071F1000404DB4FF00044404264EB01011B
:100A4000141E73F1000405DB1C464FF000435242B4
:100A500063EB0403994208BF904230BD064C074D3A
:100A600006E0E06840F0010394E80700984710347E
:100A7000AC42F6D3FFF760FBB4700008D4700008F6
:100A80002DE9F04D00231A461B1A8A4103DB002092
:100A90000146BDE8F08DC1F30A52C1F3130141F4E0
:100AA00080154FF0000BD10702D100186D41521E86
:100AB0000027044640F2FF11384601EB620A3E4629
:100AC0008046024600204FF48011FFF77EFBC219DA
:100AD0007141BB1846EB0100B4EB030C75EB000C45
:100AE00004D3E41A65EB000517460E46241908F1F5
:100AF00001006D4180463428E3DDF91946EB06001C
:100B0000091BA84103D24FF0FF32134601E0002237
:100B100013461BEB070046EB0A51BDE8F04DFFF70B
:100B2000F9BEFEE7014800F0D7B800006C020020D3
:100B300030B590F840500124AC40C56B6C6004683F
:100B400063604368102B036803D099600068C2603B
:100B500030BD9A600068C16030BD704772B6FEE774
:100B600010B590F821100022022905D004218163DC
:100B700080F82020012010BD01680B6823F00E03CF
:100B80000B6001680B6823F001030B6090F84030A4
:100B9000C46B012101FA03F3636080F8211080F82F
:100BA0002020104610BD00002DE9F05F90F82110C4
:100BB0000024022903D004218163012485E0016817
:100BC0000A6822F00E020A6001680A6822F0010237
:100BD0000A603F4E3E4FB215DFF8F4C0DFF8F090E8
:100BE000DFF8ECA0DFF8E8B0DFF8E4E00168783F78
:100BF00013011502ACF1640CA9F15009AAF13C0AE9
:100C0000ABF1280BAEF1140E4FF48018B14227D986
:100C1000B9420ED0614512D049451DD0514518D07A
:100C2000594518D0714501D1424615E0294EB142CF
:100C300001D1012210E0274E1436B14201D1102219
:100C40000AE0244E2836B14206D0224A3C32914274
:100C500001D11A4600E02A461E49091F0A602BE00E
:100C6000B94213D0614517D0494522D051451DD016
:100C700059451DD0714501D142461AE0B14202D119
:100C80004FF0807215E0134EB14201D1012210E005
:100C9000104E1436B14201D110220AE00D4E283612
:100CA000B14206D00B4A3C32914201D11A4600E0D3
:100CB0002A46074980394A60012180F82110002125
:100CC00080F82010416B01B188472046BDE8F09FB5
:100CD00080000240080402402DE9F05FC16B0A6801
:100CE00001680B68046C4FF0040808FA04F8844D9E
:100CF000844E854FDFF814C2DFF81492DFF814A297
:100D0000DFF814B2DFF814E218EA020F65D05FEAE8
:100D1000437862D50A68920603D40A6822F0040276
:100D20000A60DFF8F0814FF48062016808F114086E
:100D300013011402414524D9A9420DD0B1420FD06C
:100D4000B9421AD0614515D0494515D0514501D158
:100D5000120312E0594501D104220EE0714501D180
:100D600040220AE06D4D1435A94206D06B4A283264
:100D7000914201D11A4600E022466749091F0A60E4
:100D800029E0A94213D0B14215D0B94220D0614523
:100D90001BD049451BD0514502D14FF4800217E0CA
:100DA000414502D14FF0806212E0594501D1042241
:100DB0000EE0714501D140220AE0584D1435A94298
:100DC00006D0564A2832914201D11A4600E0224606
:100DD0004B4908394A60C16A71E04FF0020808FACD
:100DE00004F818EA020F70D05FEA83786DD50A68BC
:100DF000920606D40A6822F00A020A60012180F8ED
:100E00002110DFF810814FF40072016808F1140816
:100E100013011402414524D9A9420DD0B1420FD08B
:100E2000B9421AD0614515D0494515D0514501D177
:100E3000120312E0594501D102220EE0714501D1A1
:100E400020220AE0354D1435A94206D0334A283213
:100E5000914201D11A4600E022462F49091F0A603B
:100E600029E0A94213D0B14215D0B94220D0614542
:100E70001BD049451BD0514502D14FF4001217E059
:100E8000414502D14FF0007212E0594501D10222D2
:100E90000EE0714501D120220AE0204D1435A9420F
:100EA00006D01E4A2832914201D11A4600E022465D
:100EB000134908394A60002180F82010816A00290E
:100EC0001CD0BDE8F05F0847FFE70825A5401542A4
:100ED00014D01A0712D50A6822F00E020A6090F8A0
:100EE0004020C36B012101FA02F25A60816380F84D
:100EF0002110002180F82010016BE0E7BDE8F09F91
:100F0000080002401C000240300002404400024041
:100F1000580002406C000240080402401C040240D9
:100F200030B560B11A4B026814219A4209D2194BAC
:100F30001344B3FBF1F18900016417490AE0012071
:100F400030BD134B5B421344B3FBF1F189000164E4
:100F50000F490839C163022180F82110136843F654
:100F6000F0718B43F0E901142143D0E902452C4391
:100F7000214304692143446921438469214319437E
:100F8000116000214163012242770177084630BD9C
:100F900008040240F8FFFDBF0000024070B504469F
:100FA00090F82000002501280CD0012084F82000B2
:100FB00094F821600020012E06D084F8200002253C
:100FC000284670BD022070BD022684F82160A0630F
:100FD0002068066826F0010606602046FFF7A8FD97
:100FE000E06A00282068016802D041F00E0106E0A6
:100FF00021F0040101602068016841F00A010160EC
:101000002068016841F001010160D9E770B504462C
:1010100000F00AF90546601C02D004480078044438
:1010200000F002F9401BA042FAD370BD2C00002052
:101030002DE9F84FDFF8C891002409F1040A0AF1FC
:10104000040B23460F270BF1040ED1E00125A54028
:1010500006EA0502AA4276D1DFF8A8C14E68A6EBDF
:101060000C0866452BD00DDC032E34D005DC36B3DE
:10107000012E19D0022E2FD11BE0112E16D0122EC8
:101080002AD119E0B8F5881F19D006DCB8F5803FE1
:1010900015D0B8F5801F1FD111E0B8F5001F0ED094
:1010A000B8F5041F18D10AE0CB6815E0CB681B1D0A
:1010B00012E0CB6808330FE0CB680C330CE08B6890
:1010C0002BB1012B4FF0080303D0456104E004234A
:1010D00002E0056100E00023FF2A01D8064601E096
:1010E00000F104064FEA840501D9A5F12005D6F8E0
:1010F000008007FA05FC28EA0C0803FA05F548EA1F
:101100000508C6F800804D68ED0070D53E4DAE690B
:1011100046F00106AE61AD6924F0030605F0010555
:1011200000953A4D06EB050CDCF80850A607360F83
:1011300007FA06F825EA0805DFF8D480404503D110
:101140004FF0000825E052E0DFF8C880404502D1AA
:101150004FF001081DE0DFF8C080404502D14FF09C
:10116000020816E0DFF8B480404502D14FF00308D2
:101170000FE0DFF8AC80404502D14FF0040808E0F2
:10118000DFF8A080404502D14FF0050801E04FF0A4
:10119000060808FA06F848EA0508CCF808804D6801
:1011A000D9F80060ED034D4601D5164300E09643A3
:1011B0002E604D68DAF80060AD03554601D5164340
:1011C00000E096432E604D68DBF80060ED025D465E
:1011D00001D5164300E096432E604D68DEF80060AE
:1011E000AD02754601D5164300E096432E60641C9F
:1011F0000A681646E2407FF429AFBDE8F88F000088
:1012000000040140000011100010024000000140E5
:1012100000080140000C0140001001400014014092
:1012200000180140001C0140014880687047000020
:101230002C00002070B5040025D094F83D00002556
:1012400020B984F83C50204600F078FA242084F835
:101250003D002068016821F00101016020680168FB
:1012600041F4004101602068016821F400410160FF
:1012700000F0C0FB4D4A6168914201D84C4900E042
:101280004C49884201D2012070BD4B492368B0FB14
:10129000F1F15E6826F03F060E435E60636893429C
:1012A00006D94FF4967359434FF47A73B1FBF3F1B7
:1012B0002368491C1E6A26F03F06314319626168A3
:1012C000914210D84900401EB0FBF1F2521CC2F30B
:1012D0000B02042A01D2042022E0B0FBF1F0401CF2
:1012E000C0F30B001CE0A268F2B301EBC10303EBF7
:1012F0000116431EB3FBF6F35B1C43F480431B054E
:1013000049D092B301EBC10202EB0111401EB0FBC8
:10131000F1F0401CC0F30B0040F4804040F400406A
:101320002168CA694CF6FF739A431043C861D4E937
:10133000071001432068026822F0C00211430160D7
:10134000D4E9030101432068826848F2FF339A43DD
:1013500011438160D4E9050108432168CA6822F07D
:10136000FF021043C86001E00EE016E0206801684B
:1013700041F0010101602564202084F83D002563CF
:1013800084F83E50002070BD01EB4106431EB3FBC4
:10139000F6F35B1CB3E70120C2E701EB4101401EFD
:1013A000B0FBF1F0401CC0F30B00B7E7A0860100D2
:1013B00080841E0000093D0040420F002DE9FF4FD0
:1013C00083B00025DDE910799A4693460446DDF89E
:1013D00048800095FFF728FF064694F83D00202836
:1013E0007CD11923012285492046009601F082FA1A
:1013F0000028F5D194F83C0001286FD0012084F832
:101400003C0020680168C90703D1016841F001016F
:1014100001602068016821F400610160222084F8E5
:101420003D00402084F83E0025646762A4F82A90BD
:10143000608D20857248E062CDE9008653465A46A9
:101440002046049901F05EF900287DD1208DDFF857
:10145000B491202768B1012814D0022820680168BF
:101460001ED041F48061016020684169806900906C
:10147000B6E02068416981690091016841F400711A
:101480000160ADE02068016821F48061016072B6FE
:101490002068416981690091016841F400710AE0A6
:1014A00041F40061016072B6206841698169009170
:1014B000016821F48061016062B691E0032868D878
:1014C00001280CD0022843464FF00002494620462E
:1014D00000960FD001F00EFAB0BB10E08BE0324660
:1014E0004146204601F085FA70BB20680069616AB8
:1014F00008706CE001F0FEF930BB72B634E0206891
:10150000016821F48061016072B620680069616A37
:101510000870606A401C6062208D401E2085608DCE
:10152000401E6085384846F2A8110068B0FBF1F013
:10153000C0EBC00000EB80000090401E009008D07F
:1015400020684069C04300E029E040070CD50098BE
:10155000F3E744F8305F6773A573206940F020001B
:10156000206162B625731AE02068016841F40071B9
:10157000016020680069616A0870606A401C6062EE
:10158000218D491E2185618D491E618562B62168C4
:101590001BE032464146204601F02BFA18B10120EB
:1015A00007B0BDE8F08F20680069616A0870606A62
:1015B000401C6062218D491E2185618D491E618517
:1015C00021684A69D24352070AD409690170606AE6
:1015D000401C6062208D401E2085608D401E60850D
:1015E000208D00287FF46AAF84F83D7084F83E5067
:1015F00084F83C50D4E70220D2E70000020010003B
:101600000000FFFF04000100380000202DE9FF4F1B
:1016100083B09A46DDE9119793460446DDF8408091
:10162000FFF702FE054694F83D0020287FD11923DC
:10163000012240492046009501F05CF9002876D14E
:1016400094F83C00012872D0012084F83C00206806
:101650000168C90703D1016841F0010101602068F8
:10166000016821F400610160212084F83D004020E0
:1016700084F83E0000262664C4F82480A4F82A904A
:10168000608D20852C48E062CDE9007553465A46AE
:101690002046049901F0B4F870B930E02A46394682
:1016A000204601F0D9F958B1206C042804D12068F3
:1016B000016841F400710160012007B0BDE8F08FBE
:1016C000606A216800780861606A401C6062218D50
:1016D000491E89B22185628D521E62852268536936
:1016E000DB435B070BD469B100781061606A401C72
:1016F0006062208D401E2085608D401E6085208D9B
:101700000028CBD12A463946204601F0CDF80028E2
:10171000CAD154F83D0B016841F4007101602020EA
:1017200004F81E09E67766770020C6E7FFE7022087
:10173000C3E70000020010000000FFFF10B586B0F4
:101740000021009101910291039100680F498842A4
:101750001AD10F4CA06940F00800A061A069694649
:1017600000F008000490C020009012200190032097
:1017700003900848FFF75CFCE06940F40010E0616A
:10178000E06900F40010049006B010BD0054004061
:1017900000100240000C01400248816802781144A8
:1017A000816070472C000020074810B5016841F0A7
:1017B00010010160032000F075F80F2000F006F81A
:1017C00000F024F8002010BD0020024070B50D4D3F
:1017D00004464FF47A712878B1FBF0F00A490968A1
:1017E000B1FBF0F000F0ECFA48B9102C07D200225F
:1017F0002146501E00F036F800206C6070BD0120BC
:1018000070BD00002C000020380000200C4808B5F6
:10181000816941F001018161816901F0010100915B
:10182000C16941F08051C161C06900F080500090F1
:101830000448416821F0E06141F00071416008BD59
:101840000010024000000140002809DB00F01F02E8
:10185000012191404009800000F1E020C0F8001112
:1018600070470000F0B40E4B1B680C46C3F3022314
:10187000C3F10705042D00D90425191D072901D23C
:10188000002300E0DB1E012606FA05F1491E214077
:1018900099409E40761E16403143F0BC01F05CBD7D
:1018A0000CED00E0064900F0070208684FF6FF0360
:1018B000184040EA0220034A1043086070470000C5
:1018C0000CED00E00000FA052DE9F0470F46050099
:1018D00061D0434E306800F00700B84209D230684A
:1018E00020F0070038433060306800F00700B8424D
:1018F00051D128683B4C810712D5400703D5606859
:1019000040F4E06060602878000703D5606840F428
:10191000605060606068A96820F0F0000843606073
:101920002878C00728D06868012810D021680228CC
:1019300010D0890700292EDA616821F003010143E4
:101940006160FFF771FC804641F288390DE0216843
:101950008903EFE78901EDE7FFF766FCA0EB0801DB
:10196000494502D90320BDE8F0876068696800F046
:101970000C00B0EB810FEFD1306800F00700B842E7
:101980000BD9306820F0070038433060306800F031
:101990000700B84201D00120E5E72878400705D5C7
:1019A0006068E96820F4E060084360602878000718
:1019B00006D56068296920F4605040EAC100606083
:1019C00000F038F86168084AC1F30311515CC8405F
:1019D0000649086006480068FFF7F8FE0020C2E7E5
:1019E0000020024000100240C462000838000020BD
:1019F000300000200448054900684968044AC1F3E2
:101A00000221515CC840704738000020001002409D
:101A1000D46200080448054900684968044AC1F3D3
:101A2000C221515CC84070473800002000100240BD
:101A3000D462000812A185B00FC98DE80F0014A070
:101A4000144A006804905168134801F00C03042BF9
:101A500010D0082B0ED1C1F38343C9031DF8030036
:101A60000AD5516804AAC1F34041515C0A4A504367
:101A7000B0FBF1F005B0704708494843FAE70000B1
:101A800002030405060708090A0B0C0D0E0F1010BF
:101A9000010200000010024000127A0000093D001F
:101AA0002DE9F84F040070D02078C04DC00749D010
:101AB0006868C0F38100012807D06868C0F381001E
:101AC000022809D16868C00306D52868800339D583
:101AD00060680028E7D035E06068B0F5803F0BD043
:101AE00010B1B0F5A02F11D0286820F48030286004
:101AF000286820F4802002E0286840F480302860C4
:101B0000606890B1FFF790FB06460AE0286840F451
:101B100080202860F0E700BFFFF786FB801B642869
:101B200073D828688003F7D50CE0FFF77DFB0646E5
:101B300005E000BFFFF778FB801B6428F0D8286819
:101B40008003F7D420789A4E80074FF001094FF0B8
:101B5000000839D5686810F00C0F07D06868C0F32A
:101B60008100022809D16868C00306D4286880076C
:101B700014D52069012808D110E02069B0B1C6F859
:101B80000090FFF751FB074605E00AE1FFF74CFB29
:101B9000C01B0228C4D828688007F7D52868616967
:101BA00020F0F80040EAC10028600DE0C6F800808F
:101BB000FFF73AFB074604E0FFF736FBC01B02289D
:101BC00023D828688007F7D4207800072CD57948D7
:101BD000A169D9B1C0F80090FFF726FB074604E0E1
:101BE000FFF722FBC01B02280FD8686A8007F7D5D1
:101BF00071484FF4FA510068B0FBF1F0009000BF5B
:101C00000098411E0091FAD20EE080E0C0F80080FA
:101C1000FFF70AFB074604E0FFF706FBC01B02289C
:101C200075D8686A8007F7D42078400760D5E869DE
:101C30000027C00008D4E86940F08050E861E869F6
:101C4000012700F0805000905C480168C90513D45A
:101C50000168834641F480710160FFF7E5FA82462E
:101C600006E000BFFFF7E0FAA0EB0A0064284ED8B8
:101C7000DBF80000C005F5D5E06801280AD008B1FE
:101C8000052813D0286A20F001002862286A20F075
:101C9000040002E0286A40F001002862E06841F296
:101CA000883B98B1FFF7C0FA82460BE0286A40F003
:101CB00004002862EEE700BFFFF7B6FAA0EB0A01C6
:101CC00059455AD8286A8007F6D50CE0FFF7ACFAD8
:101CD000824605E0FFF7A8FAA0EB0A0159454CD867
:101CE000286A8007F6D41FB1E86920F08050E861C7
:101CF000E06988B36968C1F38101022944D00228F0
:101D0000C6F8608004D0FFF78FFA044638E034E06C
:101D1000FFF78AFA074604E0FFF786FAC01B02289D
:101D20002BD828688001F7D4206AB0F5803F05D110
:101D30006868A16820F4003008436860D4E90801AD
:101D40000843696821F4741108436860C6F860901C
:101D5000FFF76AFA044606E025E000BFFFF764FAE1
:101D6000001B022809D828688001F7D51BE000BFB6
:101D7000FFF75AFA001B022802D90320BDE8F88FAA
:101D800028688001F4D40EE00128F7D06868226A40
:101D900000F48031914204D1616A00F470108842ED
:101DA00001D00120EAE70020E8E70000001002402F
:101DB000000042428004424238000020007000408F
:101DC00010B5401EB0F1807F01D3012010BD4FF04F
:101DD000E02460610F21601701F0BEFA0020A061CD
:101DE00007202061002010BD7047704770B590F843
:101DF0003C20012A2CD0012480F83C40022280F8AB
:101E00003D2003685A689D6822F070060A683243D4
:101E10005A60104B02689A420ED00F4B9A420BD078
:101E2000B2F1804F08D00D4B9A4205D00C4B9A422C
:101E300002D00C4B9A4204D1496825F08003194323
:101E4000916080F83D40002180F83C10084670BD4C
:101E5000022070BD002C014000340140000400400D
:101E600000080040000C004010B5040003D094F8B6
:101E70003D0010B107E0012010BD002084F83C00B7
:101E8000204600F01FF8022084F83D00211D206844
:101E900001F054F8012084F8460084F83E0084F8EC
:101EA0003F0084F8400084F8410084F8420084F840
:101EB000430084F8440084F8450084F83D00002085
:101EC00010BD000000B585B0002100910191029184
:101ED00003911B4A01681B4891420ED1C16941F030
:101EE0000201C161C069002200F0020004901146A5
:101EF0001D20FFF7B7FC1D201EE0134A91421DD1A3
:101F0000C16941F00401C161C16901F0040104919A
:101F1000816941F0400181618069694600F04000BB
:101F20000490012000900948FFF782F80022114632
:101F30001E20FFF797FC1E20FFF786FC05B000BDB2
:101F4000000400400010024000080040001801405A
:101F500090F83D10012901D001207047022180F83E
:101F60003D100168CA6842F00102CA6000680E496B
:101F700088420ED00D4988420BD0B0F1804F08D076
:101F80000B49884205D00B49884202D00A49884251
:101F900004D1816801F00701062903D0016841F0EE
:101FA0000101016000207047002C01400034014015
:101FB0000004004000080040000C004070B50446DA
:101FC00090F83C00012817D0012584F83C500220ED
:101FD00084F83D002068826822F0770222F47F4274
:101FE00082600868502830D00DDC20284DD005DCF8
:101FF00098B310283BD148E0022070BD302844D06F
:10200000402834D139E0602828D0702806D0B0F5B7
:10201000805F2CD0B0F5005F29D10AE0CB68D1E910
:102020000121206800F0D0FF2068816841F077012D
:1020300009E0CB68D1E90121206800F0C5FF2068E4
:10204000816841F48041816011E0CA684968206874
:1020500000F0CCFF5021206807E016E0CA6849680C
:10206000206800F0D4FF6021206800F0B7FF84F8FA
:102070003D50002084F83C0070BDCA684968206863
:1020800000F0B4FF40212068EFE7226801461046C7
:10209000EBE7704770B50446006801694FF0000532
:1020A000C943890715D4C168C943890711D4E91EFA
:1020B000016101202077206880698007204602D0D6
:1020C000FFF7E7FF04E000F098F8204600F096F8EC
:1020D000257720680169C943490717D4C168C943F6
:1020E000490713D46FF004010161022020772068B2
:1020F000806910F4407F204602D0FFF7CAFF04E059
:1021000000F07BF8204600F079F825772068016917
:10211000C943090716D4C168C943090712D46FF02F
:1021200008010161042020772068C06980072046EB
:1021300002D0FFF7AEFF04E000F05FF8204600F0A9
:102140005DF8257720680169C943C90617D4C168BD
:10215000C943C90613D46FF010010161082020772C
:102160002068C06910F4407F204602D0FFF791FF3D
:1021700004E000F042F8204600F040F8257720689F
:102180000169C943C90708D1C168C943C90704D156
:10219000891E0161204600F033F820680169C943B7
:1021A000090609D4C168C943090605D46FF0800146
:1021B00001612046FFF718FE20680169C9434906FE
:1021C00009D4C168C943490605D46FF040010161D3
:1021D000204600F04BF820680169C94389060BD4FA
:1021E000C168C943890607D46FF020010161204608
:1021F000BDE87040FFF7F9BD70BD70477047000043
:102200002DE9F047144986B0884222D1134CA069C9
:10221000FEF7B2FA81468A466069FEF7ADFA0746D4
:1022200088462069FEF7A8FA05460E46E069FEF7E3
:10223000A3FA8DE8E00702460B460949094801F078
:1022400063F806B0C822BDE8F0470649064800F02A
:10225000FFB906B0BDE8F08798010020000000201B
:10226000187000087C00002028020020704770478A
:1022700070470000F8B5026804461068D1685369D9
:1022800010F00F0F4FF0000554D003F0010601F4D9
:10229000907737435FD0C20705D0CA0503D5226CBB
:1022A00042F001022264420705D5DA0703D0226C0E
:1022B00042F002022264820705D5DA0703D0226CBD
:1022C00042F004022264020707D501F020023243E3
:1022D00003D0226C42F008022264226C002A35D01E
:1022E000800604D5880602D5204600F00CFF206841
:1022F0004069216CC0F3801001F0080101432046C1
:1023000025D000F0DFFE2068416949061BD54169F0
:1023100021F040014161A06BA8B158494163A06B15
:10232000FEF742FC002811D0A06B416B01B0BDE864
:10233000F040084783060ED58B060CD52046BDE835
:10234000F84000F0E0BE2046FFF792FFF8BDFFF72F
:102350008FFF2564F8BD266B2023012E52D1C606BF
:1023600050D5CE064ED51068506800905069400692
:102370002AD5A16B086840680004000CEAD0A68D3D
:102380008642E7D9E0858869202818D0D06820F4F3
:102390008070D0602068416921F0010141612068AE
:1023A000416921F04001416184F83E302563206895
:1023B000C16821F01001C160A06BFEF7D1FBA08DB8
:1023C000E18D401A81B219E0A08DE18D401A81B2F1
:1023D000E08D0028BED00029BCD0D06820F49070D9
:1023E000D0602068426922F00102426184F83E30E8
:1023F00025632068C26822F01002C2602046FFF701
:1024000036FFF8BD05062BD50D0629D594F83D00FD
:102410002128F6D1A068B0F5805F01D12069B0B164
:10242000206A411C2162216800784860E08C401ECF
:102430000004000CE084E4D12068C16821F0800130
:10244000C1602068C16841F04001C160F8BD206AE8
:102450000088C0F308005060206A801C2062E5E715
:102460004006F3D54806F1D5D168204621F0400159
:10247000D16084F83D3000F02BF9F8BD333000080E
:1024800070B5040004D094F83D00002510B106E0BA
:10249000012070BD84F83C50204600F023F8242031
:1024A00084F83D002068C16821F40051C1602046D5
:1024B00000F084FE2068016921F4904101612068E8
:1024C000416921F02A0141612068C16841F400514D
:1024D000C1602564202084F83D0084F83E0000207F
:1024E00070BD000070B586B00025064600950195C8
:1024F0000295039500682349884240D12249C86962
:1025000040F40030C861C86900F400300490886964
:1025100040F00400886188691C4C00F004000490BD
:102520000420009002200190032003906946204679
:10253000FEF77EFD0820CDE900056946204602959C
:10254000FEF776FD134C124820601020C4E9010507
:102550008020C4E9030540016561C4E906502046B6
:10256000FEF7DEFC08B1FEF7F9FA746300221146AB
:1025700026206662FFF776F92620FFF765F906B098
:1025800070BD0000004400400010024000080140FF
:10259000800002406C020020704700002DE9F843E3
:1025A000044690F83D001F4616460D4620284CD1A3
:1025B000C5B1BEB194F83C00012846D0012084F892
:1025C0003C004FF00008C4F84080212084F83D0012
:1025D000FEF72AFEA6848146E684A068B0F5805FF7
:1025E00003D004E00120BDE8F883206928B12E461D
:1025F0005FF0000584F83C800EE00026FAE78021B9
:10260000204600F037FEA0B9AEB116F8010B2168E4
:102610004860E08C401EE084E08C4B464FF00002A6
:1026200000970028EBD14FF04001204600F022FE39
:1026300030B10320D7E735F8020BC0F30800E6E716
:10264000202084F83D000020CDE70220CBE70000E9
:1026500070B5044690F83D00202830D169B362B3CC
:1026600094F83C0001282AD0012084F83C00216223
:10267000A284E28400252564212084F83D00636B58
:1026800010489862636B1048D862636B0F481863F8
:10269000606B134645632668606B321DFEF77EFC57
:1026A00021686FF04000086084F83C502068416960
:1026B00041F080014161002070BD012070BD022009
:1026C00070BD00008D300008BB30000843300008AA
:1026D00070477047FEE701684A69D24352050FD43C
:1026E0006FF480624A61002140F8301F202242735B
:1026F0008173026942F00402026101730120704794
:10270000002070472DE9F84F0446006889460B9D6C
:1027100001689846174641F48061016020680168AD
:1027200041F48071016000954FF0011B0022594671
:1027300020460A9B00F0DEF84FF4007A40B1206892
:102740000068C00501D5C4F840A00320BDE8F88F9B
:10275000216809F0FE0008612B46284920460A9AA4
:1027600000F0FCF8F0BB20684169806900902A46BF
:1027700020460A9900F070F940B1206C04283AD143
:102780002068016841F40071016034E0FEB2B8F1E4
:10279000010F09D02168380A08612A4620460A99A3
:1027A00000F05AF90028E8D1206806612A46204640
:1027B0000A9900F051F90028DFD12068016841F43E
:1027C0008071016000950022594620460A9B00F066
:1027D00091F80028B3D1216809F0FF0040F0010012
:1027E000086100E007E02B46044920460A9A00F001
:1027F000B5F80028AAD00120A8E7000002000100D7
:102800002DE9F843044600680D46DDE908970168A4
:102810009846164641F4807101604B4600224FF005
:1028200001112046009700F065F848B12068006863
:10283000C00502D54FF4007020640320BDE8F88382
:10284000216805F0FE0008613B464A4615492046CE
:1028500000F084F888B920684169806900903A46A0
:102860004946204600F0F8F848B1206C042804D10D
:102870002068016841F4007101600120DEE7F5B2D3
:10288000B8F1010F09D02168300A08613A4649467B
:10289000204600F0E1F80028E7D12068056100201B
:1028A000CCE700000200010070B516460D46044654
:1028B0000DE02046FFF70FFF08B1012070BD681C36
:1028C00005D0FEF7B1FC801BA84207D835B12068BF
:1028D0004069C0434007ECD4002070BD002044F89C
:1028E000300F20216173A073216941F02001216123
:1028F0002073E2E72DE9F0471E4690460D46044658
:10290000C1F30747DDF8209008E0701C06D0FEF701
:102910008BFCA0EB0900B0420FD876B12068012FE4
:1029200018D0806925EA00000004000C14D00021B2
:102930004145EAD00020BDE8F087002044F8300F80
:1029400020216173A073216941F02001216120736E
:102950000120F0E74069E5E70121E9E72DE9F047CB
:102960009A4691460E46044600254FF02008C1F3D2
:10297000074725E020684069C043400514D420681B
:10298000016841F40071016021686FF48060486162
:10299000256384F83D8084F83E50206C40F00400AC
:1029A000206484F83C501FE0B9F1FF3F08D0FEF7E7
:1029B0003BFCA0EB0A0149450CD8B9F1000F09D046
:1029C0002068012F13D0806926EA00000004000C63
:1029D0000BD0CFE744F8305F84F80D80A5732069F1
:1029E00040F02000206125730120BDE8F087406998
:1029F000EAE72DE9F041002590460E4604462027DF
:102A000017E04069C043C0060CD454F8301B6FF087
:102A10001000486144F810596777A577206A206252
:102A2000257717E0FEF700FCA0EB0800B04208D8BD
:102A30003EB120684169C9434906E2D40020BDE89F
:102A4000F08144F8305F6773A573206940F020007F
:102A5000206125730120F2E770B516460D46044645
:102A60000DE02046FFF737FE08B1012070BD681C5D
:102A700005D0FEF7D9FB801BA84207D835B12068E6
:102A80004069C0430006ECD4002070BD002044F82B
:102A9000300F20216173A073216941F02001216171
:102AA0002073E2E77CB514460D4606466B460622C7
:102AB0003B21682000F0A2F800280BD1BDF80010DF
:102AC00049BA3180BDF8021049BA2980BDF8041016
:102AD00049BA21807CBD7CB514460D4606466B463E
:102AE00006224321682000F089F800280BD1BDF8A8
:102AF000001049BA3180BDF8021049BA2980BDF8EA
:102B0000041049BA21807CBD08B56B4602224121E0
:102B1000D02000F073F8BDF8000040BA00B2FDF715
:102B2000EDFD0022074BFDF76CFD074A074BFDF753
:102B30004FFCFDF734FE0649FDF7CEFBFDF7EFFD38
:102B400000B208BD00407540A4703D0AD743424022
:102B50000000C84210B580216B2000F09DF8642071
:102B6000FEF754FA00216B2000F096F8032000F0E5
:102B70005EF8002000F056F8322000F075F80021D1
:102B8000382000F089F800216A2000F085F8002143
:102B9000232000F081F88021372000F07DF8752097
:102BA00000F012F8682801D0012010BD01216B202F
:102BB00000F072F800216C2000F06EF8322000F076
:102BC00053F8002010BD00001FB500218DF80C1037
:102BD00040F6FF73012203A98DE80E00134602465A
:102BE000D1210548FEF7EAFB0120FEF70FFA9DF818
:102BF0000C0004B010BD0000440100203EB540F6BA
:102C0000FF74CDE900320A460146029401230448CC
:102C1000FEF7D4FB0220FEF7F9F900203EBD0000CC
:102C200044010020C006010E1C2000F035B8C0068B
:102C3000010E1B2000F030B8BC2801D3012110E0A8
:102C4000622801D302210CE02A2801D3032108E0E5
:102C5000142801D3042104E00A2801D3052100E04F
:102C600006211A2000F018B810B504464FF47A7007
:102C7000844201D9044602E0042C00D20424B0FBB3
:102C8000F4F0401EC1B2192000F006F86008BDE85B
:102C90001040FFF7D1BF00001FB540F6FF738DF85D
:102CA0000C10012203A98DE80E0013460246D02124
:102CB0000448FEF7ABFC0120FEF7A8F904B00020A1
:102CC00010BD0000440100203EB540F6FF74CDE980
:102CD00000320A460146029401230448FEF796FC9E
:102CE0000220FEF793F900203EBD000044010020C1
:102CF000094808B5416941F001014161406900227C
:102D000000F00100009011461120FEF7ABFDBDE878
:102D100008401120FEF798BD00100240114808B588
:102D2000816941F010018161816901F01001009118
:102D3000816941F004018161816901F00401009120
:102D4000816941F008018161816901F00801009108
:102D5000816941F040018161806900F0400000908C
:102D600008BD0000001002400D4810B50B4901607D
:102D70000C49416000214FF480428160C0E9031298
:102D800041618161C1610162FEF754FA002803D0FC
:102D9000BDE81040FDF7E2BE10BD00000054004049
:102DA00044010020801A060010B586B0002418489F
:102DB00000940194029403940494144905940160CE
:102DC00041F61F41C0E9011441F28731C0E9031403
:102DD00080218161FFF748F808B1FDF7BFFE4FF48D
:102DE0008050009069460A48FFF7E8F808B1FDF7FF
:102DF000B5FE049404A906480594FEF7F7FF0028E1
:102E000001D0FDF7ABFE06B010BD0000000400408D
:102E10009801002010B586B0002418480094019451
:102E200002940394049414490594C0E900144FF6E5
:102E3000FF71C0E9024104618461FFF715F808B130
:102E4000FDF78CFE4FF40050CDE900040294694672
:102E50000A480394FFF7B2F808B1FDF77FFE049427
:102E600004A906480594FEF7C1FF002801D0FDF72C
:102E700075FE06B010BD000000080040E001002013
:102E80000C4810B50A4901604FF4E131416000215E
:102E900081600C22C160C0E904128161C161FFF749
:102EA000EFFA002803D0BDE81040FDF757BE10BD73
:102EB0000044004028020020FEE7FEE7704770470C
:102EC000FEF76ABC30B58FB028216846FDF794F94B
:102ED00014210AA8FDF790F901210804CDE900109A
:102EE0000024029402250491CDE907504FF4E0102C
:102EF00009906846FEF7D4FD08B172B6FEE70F20D0
:102F0000CDE90A054FF48060CDE90C4002210AA802
:102F10000E94FEF7D9FC002801D072B6FEE70FB080
:102F200030BD70470148FFF7B5B800009801002098
:102F30000148FFF7AFB80000E0010020F0B50268DB
:102F40001C4B1D4D1D4E1E4F1E4C4FF0804C984289
:102F500009D0A04207D0604505D0A84203D0B042B6
:102F600001D0B84204D122F0700E4A6842EA0E0243
:102F7000984209D0A04207D0604505D0A84203D0AE
:102F8000B04201D0B84203D122F44075CA682A4346
:102F90004D6922F080022A4302608A68C2620A6890
:102FA0008262984201D0A04201D1096901630121E6
:102FB0004161F0BD002C01400004004000080040C9
:102FC000000C00400034014010B5846842EA03223E
:102FD00024F47F440A432243826010BD826822F0B9
:102FE00070020A4342F007018160704710B5036A1E
:102FF000046A24F001040462846924F0F00444EAC1
:10300000021423F00A020A438461026210BD10B563
:10301000036A23F0100303628369046A23F4704394
:1030200043EA023224F0A00343EA01118261016203
:1030300010BD10B5406A0021C185C184FFF718F9A1
:1030400010BD70B5446A2068406994F83D10C0F323
:10305000C0100025212904D118B1E584204600F0D4
:1030600049F82068406994F83E10C0F38010222986
:1030700004D118B1E585204600F024F8206C40F01A
:10308000100020642046FFF7F3F870BD10B501462C
:10309000406A0968096889060CD40021C184016866
:1030A0004A6922F080024A610068C16841F040012B
:1030B000C16010BDFFF70CFB10BD10B5406AFFF7F3
:1030C00008FB10BD0168CA6822F49072CA600168EA
:1030D0004A6922F001024A61016B012904D10168A9
:1030E000CA6822F01002CA60202180F83E10002138
:1030F000016370470168CA6822F0C002CA602021DB
:1031000080F83D10704708B590F83E10222901D094
:10311000022008BD82684FF480539A4201D10169B0
:1031200021B1816A9A421BD04AB10AE00268816AE1
:103130005268C2F308020A80816A891C08E00269A9
:1031400072B10268526802F07F020A70816A491CFB
:103150008162C18D491E0904090CC18503D019E0A3
:1031600002685268F1E70168CA6822F02002CA606A
:103170000168CA6822F48072CA6001684A6922F054
:1031800001024A61202180F83E10016B012903D021
:10319000FFF702FA002008BD002101630168CA6838
:1031A00022F01002CA6001680A68D20602D50A68D5
:1031B00049680091818DFFF75AF8EBE770B5044636
:1031C00000680169E26821F44051114301612169FD
:1031D000A0680843616908432168CA6841F20C632A
:1031E0009A430243CA6020684169A26921F4407190
:1031F000114341611E492068884202D1FEF70AFC52
:1032000001E0FEF7F7FB00EBC00101EB0012606884
:1032100064218000B2FBF0F3B3FBF1F36FF018060A
:103220007343B2FBF0F5B2FBF0F605EB83053223F6
:1032300003EB0515B5FBF1F5B6FBF1F605F0F0056E
:1032400005EB0615B2FBF0F6B2FBF0F0B0FBF1F0C7
:103250006FF01802504306EB800003EB0010B0FB48
:10326000F1F0216800F00F002844886070BD000074
:10327000003801402DE9F041984617460E460446B5
:10328000069D1DE0681C1BD02DB1FDF7CDFFA0EB06
:103290000800A84214D92068C16821F4D071C16027
:1032A0002068416921F001014161202084F83D003E
:1032B00084F83E00002084F83C000320BDE8F08143
:1032C0002068006836EA000004D00020B842D9D057
:1032D0000020F3E70120F9E70148FEF7CBBF00002B
:1032E00028020020FEE700000FB4054B10B503A92B
:1032F000044A029800F070F910BC5DF814FB00005D
:10330000D54C0008740000200FB4084B10B504A978
:1033100002AA039800F060F9044602A9002000F018
:10332000F2FC204610BC5DF814FB0000073D0008CD
:10333000490050EAC12018BF04204A0D18BF40F0D0
:10334000010040F2FF72B2EB515F08BF40F0020093
:10335000012808BF052070470907090E002804DB73
:1033600000F1E02080F80014704700F00F0000F139
:10337000E02080F8141D70472DE9F0414F1E00EB4E
:10338000C7010446D1E9000115461E4637F0060282
:103390000DD02A463346FDF7C2F87F1E04EBC70363
:1033A000D3E90023FDF714F837F00602F1D1022F1C
:1033B00025D0042F13D0062F18BFBDE8F0812A4670
:1033C0003346FDF7ACF8D4E90A23FDF701F82A46A5
:1033D0003346FDF7A4F8D4E90823FCF7F9FF2A46A1
:1033E0003346FDF79CF8D4E90623FCF7F1FF2A46A3
:1033F0003346FDF794F8D4E90423FCF7E9FF2A46A5
:103400003346FDF78CF8D4E90223FCF7E1FF2A46A6
:103410003346FDF784F8D4E90023BDE8F041FCF71A
:10342000D7BF0122FDF7D3BAFCF7D2BF0022134663
:1034300010461146FDF7E5B8024A00201107FDF7D6
:10344000C6BA000001FDFFFF02E008C8121F08C154
:10345000002AFAD170477047002001E001C1121F15
:10346000002AFBD170470000014908607047000046
:10347000780000202DE9FF5FDDE90220010DDDF875
:1034800038B0024318D044F61050A1F2FF31414346
:103490000D140F98012820D0A5EB0B00401C5FEA0B
:1034A000000A4FF00004474EDFF81C91A04650463A
:1034B00016D5CAF1000728E00F98012443A201287D
:1034C00008D0002100980F9BC0E90021C0E9024309
:1034D000BDE8FF9F6FEA0B01F4E7CBF10000DEE7E8
:1034E000074612E0F80707D02246334640464946D1
:1034F000FDF715F8804689462246334610461946A0
:10350000FDF70DF804460E467F10002FEAD1DDE9E5
:103510000201BAF1000F42464B4602DAFCF7FFFF08
:1035200001E0FDF76EF804460E460022284BFDF739
:103530007DFA03D84FF0FF30014607E00022254B0B
:1035400020463146FCF744FFFDF758FA102409E005
:10355000002C0ADB0A220023FDF753F9019B3032CD
:103560001A55641E50EA0102F2D1641C019AC4F19A
:10357000110314440F9A012A03D0012208430DD1EC
:103580000AE0084304D000204FF0110B0F9080E7B1
:10359000A3EB0B056D1E0DE05B4504DD4FF0000253
:1035A00005F1010504E003DA4FF00002A5F1010581
:1035B000002AECD000980F99C0E90231C0E900451B
:1035C00086E70000000024400000F03F30000000CB
:1035D0000000F0430000E03F2DE9FF4F95B09B460F
:1035E0008946064600250FE2252877D10024274684
:1035F000F84A0121059400E0044316F8013F203BFE
:1036000001FA03F01042F7D130782A2811D06FF078
:103610002F033078A0F13002092A16D8059A44F019
:10362000020402EB820203EB42021044761C059076
:10363000EFE759F8042B0592002A03DA504244F4CC
:103640000054059044F00204761C30782E2816D1E0
:1036500016F8010F44F004042A280DD06FF02F0251
:103660003078A0F13003092B09D807EB870302EB70
:103670004303C718761CF3E759F8047B761C3078AF
:103680006C280FD006DC4C2817D068280DD06A288B
:1036900014D104E0742810D07A280FD10DE044F43E
:1036A00000140AE044F4801401E044F440147278F9
:1036B000824202D104F58014761C761C307866288C
:1036C0000BD013DC582877D009DC002875D04528AA
:1036D000F6D04628F4D047281AD19DE118E0632897
:1036E00035D0642879D0652812D195E1702873D03F
:1036F00008DC6728F1D069286FD06E280DD06F28BC
:1037000006D1B5E073282CD0752875D0782874D0F0
:103710005A46179990476D1C75E1C4F30250022870
:1037200009D003280DD0D9F8001004280DD00D6061
:1037300009F1040967E1D9F80010EA17C1E900525C
:10374000F6E7D9F800100D80F2E70D70F0E719F8F0
:10375000041B8DF8001000208DF80100EA460120BE
:1037600003E059F804AB4FF0FF3061074FF0000160
:1037700002D40DE008F101018846B9420FDA804514
:10378000F8DB1AF808100029F4D108E008F101016B
:1037900088468142FADB1AF808100029F6D105980C
:1037A0005B46A0EB080721463846179A00F094FACA
:1037B000284400EB080507E04DE029E10DE01AF888
:1037C000010B5A4617999047B8F10108F7D25B46AA
:1037D00021463846179A13E142E00A220092C4F3C8
:1037E00002524FF0000A022A08D059F804CB032AEB
:1037F0004FEAEC710AD00DE029E02AE009F1070157
:1038000021F00702F2E802C1914609E00FFA8CFCB0
:103810004FEAEC71042A03D14FFA8CFC4FEAEC71A9
:10382000002907DA0A460021DCF1000C61EB0201F5
:103830002D2202E0220504D52B228DF8042001223E
:1038400003E0E20701D02022F7E7904659E00A2181
:1038500002E010220DE010214FF0000A00910BE071
:1038600010224FF0000A44F004040827009203E0FD
:1038700008224FF0000A0092C4F30252022A05D037
:1038800059F804CB0021032A08D009E009F1070107
:1038900021F00702F2E802C1914605E01FFA8CFC14
:1038A000042A01D10CF0FF0C4FF00008220728D5A4
:1038B000702806D0009B83F0100353EA0A0305D05A
:1038C0000EE040228DF80420012208E05CEA0102AB
:1038D00006D030228DF804208DF805000222904693
:1038E000009B83F0080353EA0A030AD15CEA010251
:1038F00001D1620705D530228DF804204FF0010870
:103900007F1E582804D034A003900EA802900DE02A
:1039100036A0F9E753466046009AFCF772FF8446EA
:103920000398825C0298401E029002705CEA0100DB
:10393000F0D1029806A9081A00F1200A600702D502
:1039400024F4803400E00127574502DDA7EB0A008C
:1039500000E0002000EB0A01009005984144401A65
:103960000590E00306D45B462146179A059800F0BF
:10397000B3F90544002706E001A85A46C05D17992F
:1039800090476D1C7F1C4745F6DBE0030CD55B467A
:103990002146179A059800F09FF9054404E030206D
:1039A0005A46179990476D1C0099481E00900029AF
:1039B000F5DC08E0029802995A460078491C029109
:1039C000179990476D1CBAF10001AAF1010AF1DCC8
:1039D00065E10000092801003031323334353637D3
:1039E000383961626364656600000000303132334B
:1039F00034353637383941424344454600000000EB
:103A000000F058F90544761C307800287FF4ECADBE
:103A100019B02846BDE8F08F620700D4062709F1E7
:103A2000070222F0070CFCE80223E14603F00048FD
:103A30005FEA080C02D00FF2702C0DE05FEA045C24
:103A400002D50FF2682C07E05FEAC47C02D00FF2C7
:103A5000602C01E0AFF2700C4FF0FF3823F0004310
:103A6000CDF850C065280CD006DC452809D0462882
:103A70001DD047283DD13DE0662818D067287ED16B
:103A800038E00021112F01DB112000E0781CCDE986
:103A9000000106A90EA8FFF7EDFCDDE90F010E9A63
:103AA00003910021009207F1010A04914DE04FF0CB
:103AB00000400097CDE9011006A90EA8FFF7DAFC37
:103AC000DDE90F0203920E9B11990022DDF80CA094
:103AD0000093049211B9791C00EB010AB7EB0A00BC
:103AE00004D4C0F1FF3007F1010A0490AAEB0700EB
:103AF000019044E0012F00DA01270021112F01DDA0
:103B0000112000E03846CDE9000106A90EA8FFF714
:103B1000B1FCDDE90F010E9A03910021049100929E
:103B2000BA4621070CD40399514500DA8A46BAF106
:103B3000010F05DD009AAAF10101515C302908D07E
:103B4000B84202DA10F1040F06DA0121CDE90110C2
:103B500015E0AAF10101E9E7002805DC0499014418
:103B60000491AAEB000102E0411C514500DD8A46A8
:103B70000499401A401C01904FF000400290200729
:103B800004D40198504501DBCDF8048000208DF865
:103B90004F0002980DF14F07B0F1004F25D02B20B8
:103BA0000E9002984FF0020800280CDA4042029072
:103BB0002D200E9007E00A210298FCF70CFE303110
:103BC000029007F8011DB8F10001A8F10108F2DC2C
:103BD00002980028EFD1791E0E980870307800F016
:103BE000200040F0450007F8020D12A8C01B00F1AC
:103BF00007081498007800B1012000EB0A01019831
:103C000001EBE07105984144401A401E0590E00325
:103C100006D45B462146179A059800F05DF80544E6
:103C20001498007818B15A46179990476D1CE00314
:103C300024D55B462146179A059800F04DF80544B7
:103C40001CE00498002807DBDDE90301884203DD5E
:103C50000098405C179901E0179930205A46904728
:103C6000049805F10105401C04900198401E019044
:103C700004D12E205A46179990476D1CBAF10001C5
:103C8000AAF1010ADDDC05E017F8010B5A46179985
:103C900090476D1CB8F10001A8F10108F4DC5B4607
:103CA0002146179A0598ABE62D0000002B00000076
:103CB000200000002DE9F041044600251E4617466D
:103CC000880404D405E039462020B0476D1C641EEA
:103CD000F9D52846BDE8F0812DE9F04104460025DC
:103CE0001E469046C80301D5302700E020278804EF
:103CF00004D505E041463846B0476D1C641EF9D531
:103D00002846BDE8F0810A68531C0B6010707047AC
:103D10002DE9FE4F07460E460025684600F0E6FFF7
:103D200000246FF00F0AE8464FF0010957F824000D
:103D300056F82410401A00D54042FCF7D1FC5146F9
:103D4000FCF73AFB58F8241011F0FF4F0BD0FCF7AA
:103D5000F5FA4FF07E51FCF7B9FA0A4920F000401D
:103D6000884205DC07E0084908440849884202D334
:103D700009FA04F00543641C032CD7DB2846BDE890
:103D8000FE8F0000295C0F3E666666C19A99D900D5
:103D90002DE9F04D8D4F21F0004A86B005460C46C6
:103DA000BA452ADBAAEB070028430AD08848824597
:103DB00001DC1AD1CDB106B02846BDE8F04DFFF7C1
:103DC00030BB844A844B2846FCF7A9FB07460E46C5
:103DD000824A834B28462146FCF7A1FB06B03A46AF
:103DE0003346BDE8F04DFCF7F3BA0120FFF73CFB8A
:103DF00006B0BDE8F04DFFF719BB7A48824542DABC
:103E0000BAF1795F0BDA2846FFF792FA042808BF67
:103E1000FFF712FB284606B02146BDE8F08D2A4682
:103E20000B461046FCF77BFB834602466E480E4667
:103E30000B4606217844FFF79FFA5A463346FCF7B3
:103E40006EFB804669488A465A46334604217844C8
:103E5000FFF792FA5A463346FCF761FB00223B46D5
:103E6000FCF7B6FA02460B4640465146FCF7C9FB42
:103E70002A462346FCF753FB06B02A462346BDE8F4
:103E8000F04DFCF7A5BA284624F0004100223D463B
:103E90003B46FCF741FB4FF0FF32FCF798FD06462E
:103EA000024653480F460B4606217844FFF764FA52
:103EB00032463B46FCF733FBCDE900014D48324624
:103EC0003B4604217844FFF757FA32463B46FCF75D
:103ED00026FB00222B46FCF77BFA834602913046F4
:103EE000394602F0C9F9804643480D46504517DC73
:103EF000DDE900015A46029BFCF783FB42462B4654
:103F0000FCF70DFB42462B46FCF762FA0122FCF758
:103F10005EFD304A304BFCF7FCFA304A304B4CE047
:103F20004FF0000A52460B464046FCF751FACDE9E5
:103F3000031052462B4610461946FCF7F0FA32465B
:103F40003B46FCF7E9FADDE90332FCF75AFB06468B
:103F50000F46DDE900015A46029BFCF752FB8346FF
:103F60000091012230463946FCF731FD194A1A4BBF
:103F7000FCF7D2FA06460F46012240462946FCF7D6
:103F800026FD5A46009BFCF7CAFA32463B46FCF730
:103F9000C0FA06460F46012250462946FCF717FD97
:103FA0000E4DDFF858802A464346FCF7B5FA3246F4
:103FB0003B46FCF7B1FA2A464346FCF7ADFA002C23
:103FC000D8BF81F0004106B0BDE8F08D0000F03FA1
:103FD0000000F07F075C143326A6913C182D445452
:103FE000FB21F93F0000E03FF03000000631000007
:103FF0007A300000903000003333EF3FFB21E93F7F
:104000002DE9F84F04460D4621F000400091734918
:10401000814211DC7249884201DC06D12CB1204674
:104020002946BDE8F84FFFF7FCB96E48002DCCBF1C
:104030006D496E49BDE8F88F6D49814211DD6D49CA
:104040008142D8BF4FF0FF366DDD20462946FFF78D
:104050006FF9042808BFFFF7EFF920462946BDE8AD
:10406000F88F6549654F25F00045814233DD64498D
:10407000814219DD002632464FF080432046294612
:10408000FCF7A6F980468A46012220462946FCF71D
:104090009EFC00223B46FCF73CFA42465346FCF7A6
:1040A000B0FA04460D463EE001260022BA463B46E1
:1040B00020462946FCF78CF980460F4600225346DD
:1040C00020462946FCF725FA42463B46FCF799FA7A
:1040D00004460D4627E04B4981421BDDDFF828A14D
:1040E00002260022534620462946FCF718FA0022F1
:1040F0003B46FCF76DF980460F46002253462046AA
:104100002946FCF706FA42463B46FCF77AFA044693
:104110000D4608E0032622462B4600203B49FCF7CB
:1041200070FA04460D4622462B4610461946FCF707
:10413000F6F98B46824602460B46FCF7F0F9074635
:104140000246334888460B4606217844FFF714F9A7
:1041500052465B46FCF7E3F982462E488B463A46C8
:10416000434605217844FFF707F93A464346FCF7F2
:10417000D6F902460B46002E504659460CDAFCF79B
:1041800027F922462B46FCF7CAF901B022462B46F6
:10419000BDE8F04FFCF7C0B9FCF71AF922462B46F0
:1041A000FCF7BDF91C4A7A4402EBC603D3E90023AD
:1041B000FCF7AFF922462B46FCF7ABF9174A7A44D5
:1041C00002EBC603D3E90023FCF7A6F9009A002A04
:1041D000B8BF81F00041BDE8F88F00000000104436
:1041E0000000F07F182D4454FB21F93FFB21F9BF5B
:1041F0000000DC3F0000203E0000F33F0000F03FE5
:104200000000E63F008003400000F83F0000F0BFE0
:10421000922E0000502E0000EE2D0000B62D000062
:104220002DE9F04D9446CCF1000423F000464CEA11
:104230000404524F46EAD4749A46884621F000425C
:10424000BC4206D8454240EA050442EAD474BC4266
:1042500004D9BDE8F04D6246FFF7E6B8AAF1405533
:10426000A5F17F6555EA0C040BD0022404EAAA7478
:10427000434DDFF810E144EAD87452EA000B04D051
:104280000CE0BDE8F04DFFF7BBBE002C14BF012CC5
:10429000BDE8F08D022C30D0032C32D056EA0C0B46
:1042A0000AD0BE4220D1BA4209D126F0804622F07F
:1042B00080423346114617E000291ADB25E0DFF87B
:1042C000C8B0FB44002C04BFDBE90001BDE8F08D61
:1042D000012C02BFDBE9000181F00041BDE8F08D57
:1042E000022C0AD0032C0CD0BA4212D1B8F1000F24
:1042F0000BDA23482549BDE8F08D28462449BDE85E
:10430000F08D28467146BDE8F08D1D482149BDE875
:10431000F08D921B12153C2AC4BF19481D490EDCB2
:10432000BAF1000FBEBF12F13C0F0020014606DBC0
:104330006246FCF766F921F00041FFF761FE002CB0
:1043400008BFBDE8F08D012C04BF81F00041BDE83D
:10435000F08D114A114B022C07D0FCF7DAF82A46EF
:10436000BDE8F04D0A4BFCF7D4B8FCF7D2F82A466A
:10437000BDE8F04D064BFCF7CFB800000000F07F21
:10438000182D4454FB2109C04A2D0000FB21F9BF20
:10439000FB210940FB21F93F075C143326A6A13C11
:1043A00008B560B120208DF8000028208DF80100AC
:1043B00030208DF8020038208DF8030004E0A3229D
:1043C00004216846FBF711FF6A46042140F69E204F
:1043D00001F0BCFE01F07AFB08BD00003EB50446CA
:1043E00002208DF80000CA208DF80100E3208DF82E
:1043F000020009208DF803006A460421682001F0BC
:10440000A5FEA3208DF80000610609D5C0218DF816
:104410000110C8218DF80210C2218DF8031005E0AB
:104420008DF801008DF802008DF8030014F4C07FB0
:1044300009D0C4218DF80410CC218DF80510C621B7
:104440008DF8061005E08DF804008DF805008DF854
:1044500006008DF808008DF807008DF809006A46FF
:104460000A2140F6A72001F071FEA0074FF0D80501
:1044700003D020208DF8000001E08DF800506A463E
:10448000012140F6B62001F061FEA00601D5012011
:1044900000E0002000F08EF814F4C07F1ED0E0058C
:1044A0000AD5B2208DF800008B208DF80100B620CF
:1044B0008DF802009B2009E0B0208DF800008020DC
:1044C0008DF80100B4208DF8020090208DF80300D3
:1044D0006A46042140F6A22001F038FEE1074FF4BD
:1044E0000B6022D0F8218DF800106A46012101F0FE
:1044F0002DFEFA21072000F039FB072000F004FB15
:10450000012000F021FB642000F0C4FB4FF4FA709E
:1045100000F0D0FBC821254800F0BEFA282000F0AA
:10452000D3FA0A2000F0E0FA05E08DF800506A4660
:10453000012101F00BFEA00703D5D9208DF8000062
:1045400001E08DF800506A46012140F23D7001F013
:10455000FDFD600701D5012000E0002000F048F8D3
:10456000E00601D5012000E00020FFF719FF104D03
:1045700044F00800688101F0A9FA0020A8736006E1
:1045800001D50620A87314F4C07F02D0A87B801D3B
:10459000A87314F0140F02D0A87B1030A873A007E2
:1045A00002D0A87B001DA87300203EBD09E3CA020B
:1045B000B00200200EB54FF4976310B106A107C9F1
:1045C00001E008A207CA8DE807006A4609211846DB
:1045D00001F0BCFD0EBD0000B8AAB38DB4980D3536
:1045E0005D000000B8AAAAAAB088C3C5C700000031
:1045F00008B560B1C0208DF80000C2208DF8010020
:10460000C4208DF80200C6208DF8030004E08B2240
:1046100004216846FBF7E9FD6A46042140F698202C
:1046200001F094FD01F052FA08BD0000C8234FF4D8
:104630008062024940F6F63001F02AB92C63000886
:104640002DE9FF4F89B01746DDE9165200244C4E84
:10465000884681462C80A246B07B694601F0C4F9A9
:104660004FF0FF3B18B158460DB0BDE8F08F708990
:1046700010F0140F3CD0009909BA21F0FF039DF807
:1046800003100B433B6001991B1409BA21F0FF0290
:104690009DF807105B430A437A6002999DF80B402E
:1046A00009BA21F0FF012143B960039C091424BA1F
:1046B00024F0FF0C9DF80F4012144CEA040CC7F8CC
:1046C0000CC04FEA2C47494302FB023207FB07119B
:1046D00011441024A1F17061B1F1007F04D901F0FF
:1046E000F5F9A5F800A0BEE7298841F4807129807A
:1046F0004206694611D50A19A41D13885BBAA8F8A9
:10470000003053885BBAA8F80230928852BAA8F8F1
:1047100004202A8842F008022A8010F4C07F11D0B9
:104720000A19A41D13885BBAA9F8003053885BBA34
:10473000A9F80230928852BAA9F804202A8842F0D7
:1047400070022A80800716D00C44E07800F0C00583
:1047500000F03F016078C00706D0C80801F00701EB
:104760003268491C02B190476078000703D5716830
:1047700009B1A80988470C9800F0D8FD002073E71C
:10478000B00200202DE9FF41044603A800F036FFE7
:10479000BDF80C00410CC3032F48028902F003004E
:1047A000550754F8200000D54042C2F3C1059606D3
:1047B00054F8255000D56D42C2F38116D20554F845
:1047C000264000D56442A0FB0367C21702FB0372B8
:1047D00000FB0120820042EA9670A5FB0367EA17FE
:1047E00002FB037205FB0122950045EA9672A4FBC9
:1047F0000367E51705FB037304FB01318B0043EAF4
:104800009671030E8DF80030030C8DF80130030A09
:104810008DF802308DF80300100E8DF80400100C96
:104820008DF80500100A8DF80600080E8DF80800B6
:10483000080C8DF80900080A8DF80A008DF8072089
:104840008DF80B106A460C214FF4257001F07EFCA8
:1048500004B0BDE8F0810000B002002030B504468D
:1048600013A285B007CA8DE807004FF0FF35C82CAA
:1048700016D8C820B0FBF4F1491E080A8DF80C00C8
:104880008DF80D1003AA022140F2162001F05EFC03
:1048900030B96A460C2140F6C12001F057FC10B136
:1048A000284605B030BD054884810020F9E70000A6
:1048B000FEF2ABC4AAF1DFDFBBAFDFDFB002002046
:1048C000F8B53049098901F0030250F822404A073F
:1048D00000D56442C1F3C1028B0650F8222000D5F6
:1048E0005242C1F3811350F82330C80500D55B4212
:1048F000254984FB0140850045EA947082FB014212
:10490000A40F44EA820483FB0121950F45EA810547
:10491000010E8DF80010010C8DF80110010A8DF8C0
:1049200002108DF803006A4604214FF4747001F000
:104930000DFC4FF0FF3688B9200E8DF80000200CDA
:104940008DF80100200A8DF802008DF803406A46B8
:1049500004214FF4757001F0F9FB08B13046F8BD41
:10496000280E8DF80000280C8DF80100280A8DF81B
:1049700002008DF803506A4604214FF4767001F06E
:10498000E5FBF8BDB002002009E3CA022DE9FF41B2
:1049900004463CA004F00303006802903AA00068BB
:1049A00003903AA006683AA0056802A8C15C8DF899
:1049B0000010C4F3C101425C8DF80120C4F38112E0
:1049C000805C8DF8020003A8C35C8DF80430415C64
:1049D0008DF80510805C8DF806006A46032140F2D0
:1049E000264001F0B3FB4FF0FF37E0BB01AA0321E3
:1049F00040F22A4001F0AAFBA8BBCDE900656007A0
:104A00000BD59DF8000040F001008DF800009DF8E6
:104A1000040040F001008DF80400A0060BD59DF8BD
:104A2000010040F001008DF801009DF8050040F004
:104A300001008DF80500E0050BD59DF8020040F05F
:104A400001008DF802009DF8060040F001008DF88D
:104A500006006A4603214FF4886001F077FB10B925
:104A600001AA032100E004E040F2314001F06EFBB6
:104A700018B1384604B0BDE8F08106480481002032
:104A8000F8E700004CCD6C000CC92C0036567600BF
:104A900026466600B00200204FF47A7290FBF2F0D6
:104AA00008B54843010E8DF80010010C8DF8011077
:104AB000010A8DF802108DF803006A4604214FF4B4
:104AC000AE7001F043FB08BD0521B0FBF1F008B565
:104AD000010A8DF800108DF801006A4602214FF49A
:104AE000AD7001F033FB08BD0521B0FBF1F008B556
:104AF000010A8DF800108DF801006A4602214FF47A
:104B0000AC7001F023FB08BD08B500218DF8001042
:104B1000C10702D030218DF80010810705D59DF81E
:104B2000001041F00C018DF80010400705D59DF8EC
:104B3000000040F003008DF800006A4601214FF4A8
:104B4000A47001F003FB08BD08B560B1042800D9CA
:104B50000420401E8DF800006A46012140F24F10EB
:104B600001F0F4FA08BD0120F3E700002DE9FC4153
:104B7000054640074FF0FF367CD0B1F5C86F79D8B5
:104B80000846FBF7B6FD3E49FBF7D8FB074601A8F0
:104B900000F016FD9DF80400022806D004280DD070
:104BA00008282ED0102865D134E00E213846FBF7B6
:104BB00003FCFBF7CDFD84B2324907E00D213846F6
:104BC000FBF7FAFBFBF7C4FD2F4984B23846FBF72D
:104BD00083FBFBF7BDFD210A8DF8001080B28DF834
:104BE0000140010A8DF802108DF80300E8076C46B9
:104BF00020D0224602214FF4EA7001F0A7FAC8BB88
:104C000011E00C213846FBF7D7FBFBF7A1FD84B27E
:104C10001E49DBE70B213846FBF7CEFBFBF798FD7F
:104C200084B21B49D2E7A21C02214FF4927001F01A
:104C30008DFAF8B9A8070DD56A4602214FF4EC7039
:104C400001F084FAB0B9A21C02214FF4947001F073
:104C50007DFA78B9680710D56A4602214FF4EE70E4
:104C600001F074FA30B9A21C02214FF4967001F0E1
:104C70006DFA10B13046BDE8FC810020FBE7000072
:104C800000004843000040460000C0450000404589
:104C90000000C0440521B0FBF1F008B5010A8DF811
:104CA00000108DF801006A4602214FF4EF7001F008
:104CB0004DFA08BD0521B0FBF1F008B5010A8DF8E9
:104CC00000108DF801006A4602214FF4ED7001F0EA
:104CD0003DFA08BD13B54FF6FF730122694602483D
:104CE000FDF75CFC00981CBD280200202DE9FE4366
:104CF0000646264801AB042240680D210078FDF7E6
:104D00007DFF10B10720BDE8FE839DF804101C2034
:104D100000EAD1029DF80710DFF87490C1F3011387
:104D20001A438DF800209DF80520C1F3810300EAA5
:104D3000D2021A438DF801209DF8062001F00301EC
:104D400000EAD20008430024124F8DF80200A0466A
:104D50006D46285D10B146F824900AE046F824809C
:104D60000DE000BF56F824003946FBF7B5FA46F8C7
:104D70002400285D401E10F0FF002855F2D1641C6D
:104D8000E4B2032CE5D30020BDE700003C00002086
:104D90007B14AE3E1D5A843F2DE9FE4F054601208F
:104DA000C14E8DF800004FF000088DF8018030688A
:104DB0000C461746817C70686B4602220078FDF72E
:104DC00083FF4FF0FF3A00287AD1C820FCF71EF984
:104DD0008DF8008030686B460122C17B70680078D6
:104DE000FDF772FF0028EFD130686B460122417950
:104DF00070680078FDF768FF0028E5D130686B46E1
:104E00000122817C70680078FDF75EFF0028DBD10D
:104E100030686B460122C17D70680078FDF754FF51
:104E20000028D1D130686B46012201797068007882
:104E3000FDF74AFF0028C7D14FF00C098DF800900C
:104E400030686B460122017970680078FDF73CFFFD
:104E5000002835D10F20FCF7D9F8B06A6B46012243
:104E6000407A8DF800003068817870680078FDF72E
:104E70002BFF002824D1B06A6B460122007A8DF8FE
:104E800000003068417870680078FDF71DFF002849
:104E900073D1B06A807A0FB140F0E0008DF8000065
:104EA00030686B460122817970680078FDF70CFF4D
:104EB000002862D12FB1B06AC07A40F0E00001E072
:104EC0004AE018208DF8000030686B460122C17955
:104ED00070680078FDF7F8FEF0BB17B1C820FCF74A
:104EE00095F840208DF8000030686B46012201796A
:104EF00070680078FDF7E8FE70BB78208DF8000040
:104F000030686B460122417970680078FDF7DCFE5D
:104F100010BB3220FCF77AF88DF8008030684746E5
:104F20006B464179706801220078FDF7CDFE98B993
:104F300031687068B046897A00786B460222FDF7C6
:104F40005DFE48B9BDF80000AF6040BAB0FBF9F0B3
:104F50006F60C6B22F6000E00FE0A7606760276057
:104F6000002739E0D8F80010D8F804006B46C97A59
:104F700000780C22FDF742FE10B15046BDE8FE8FCE
:104F8000BDF80000236840BA02B2BDF80200BDF8C7
:104F900004101A44226040BA626800B21044606093
:104FA00049BAA06809B20844A060BDF806002B68A1
:104FB00040BA02B2BDF808001A4440BA01B2BDF8C6
:104FC0000A002A606A6840BA11446960A96800B2A0
:104FD00008447F1CFFB2A860B742C3D3286883226D
:104FE000C117090441EA104100040023FBF7BCF893
:104FF00032460023FBF7B8F8286068688322C1179F
:10500000090441EA104100040023FBF7ADF83246E1
:105010000023FBF7A9F86860A8688322C117090478
:1050200041EA104100040023FBF79EF832460023BA
:10503000FBF79AF8A86020684FF40065C1170904CF
:1050400041EA104100042A460023FBF78DF832465E
:105050000023FBF789F8206060682A46C11709041D
:1050600041EA104100040023FBF77EF8324600239A
:10507000FBF77AF86060A0682A46C117090441EA84
:10508000104100040023FBF76FF832460023FBF7C2
:105090006BF8A060002802DDA0F5803001E000F58B
:1050A0008030A060002069E73C0000202DE9F84F27
:1050B00081462E488846002540686B4603220078CA
:1050C0000D21FDF79BFD10B10720BDE8F88F9DF87D
:1050D0000000002400F01F008DF800009DF8010082
:1050E0006FF00F0B00F01F008DF801009DF802001B
:1050F0006E4600F01F008DF802004FF0010A00BF5D
:1051000059F8241058F82400081A00D54042FBF73B
:10511000E7FA5946FBF750F90746305DC0B114482D
:1051200002E01449FBF7D8F8315D491E11F0FF0188
:105130003155F6D101463846FBF700F94FF07E5164
:10514000FBF7C4F80C4920F00040884205DC07E07A
:105150000A483844B0F1D97F02D90AFA04F005436D
:10516000641C032CCCDB2846AFE700003C00002089
:105170000000C84154E3853F295C0F3E0000E0BEBB
:1051800000B5024600F00DF80346D01C00F009F807
:1051900043EAC003901D00F004F843EA801080B297
:1051A00000BD90F90010002902DD4FF000007047AB
:1051B00002DA4FF00400704790F90110002902DD77
:1051C0004FF00100704702DA4FF00500704790F988
:1051D0000200002802DD4FF00200704702DA4FF0B3
:1051E000060070474FF0070070470000FCF7DCFA3C
:1051F000FDF768FEFDF792FDFDF77AFDFDF7B4FDC2
:10520000FDF7D2FDFDF706FEFDF73AFE3948FCF743
:105210009FFE4FF47A70FBF7F9FEFDF79BFC02E06E
:1052200035A0FEF761F86420FBF7F0FE00F078F996
:105230000028F5D135A0FEF757F8384E384D394CD7
:10524000394F384A1832111F081F00F09BF8002808
:105250004CD1FDF759FC334AA081121D911E881EC6
:10526000FDF720FC2F4A0A32911E881EFDF733FC01
:10527000B4F90C00FBF742FA00223346FBF7C1F900
:10528000FBF78DFAE06129462069FBF725F8FBF76B
:1052900046FA00B2A081FBF731FA00223B46FBF749
:1052A000B0F9FBF77CFA206229466069FBF714F835
:1052B000FBF735FA00B2A081FBF720FA00223B464B
:1052C000FBF79FF9FBF76BFA60622946A069FBF7D1
:1052D00003F8FBF724FA00B2A081FBF70FFA0022D3
:1052E0003B46FBF78EF9FBF75AFAA0626420FBF706
:1052F0008DFEA6E7980100204D5055363035302000
:105300004572726F722121210D0A00004D505536F1
:10531000303530204F4B0D0A00000000000059408E
:1053200000002041000000200000244070470000E1
:105330002DE9F041124C20F00101002594F82400E1
:1053400010B10020BDE8F081A07A4FF0FF3668B1BF
:105350000840277C2074884200D0354641B10120A6
:1053600000F05EFF00F0B2FB38B127743046E9E789
:10537000207D00B1012000F053FF2846E2E7000045
:105380003C0000202DE9F74F8EB00CA902A8CDE912
:1053900000010BAB03AA09A907A8FFF751F918B13F
:1053A000012011B0BDE8F08FBDF80800C0057DD523
:1053B0000398FBF795F96FF01D042146FAF7FCFFFF
:1053C00082460498FBF78CF92146FAF7F5FF8146EF
:1053D0000598FBF785F92146FAF7EEFF8046069817
:1053E000FBF77EF92146FAF7E7FF05460121504613
:1053F000FAF7E2FF06464146FAF76EFF04464FF021
:1054000040414846FAF768FF07462946FAF764FF25
:105410002146FAF709FFFBF7AFF9FEF7B9FC4FF0A9
:10542000663B5A463D4BFBF77AF8FBF7B8F90E9905
:10543000086001214046FAF7BFFF41460090FAF7A5
:105440004BFF044638464946FAF746FF2146FAF72D
:105450003DFF4FF07E51FAF7E7FEFBF78DF9074667
:105460000C4630464946FAF737FF0646294600986B
:10547000FAF732FF3146FAF7D7FEFBF77DF93A46E5
:105480002346FEF7CDFE5A46244BFBF748F8FBF7C0
:1054900086F90F99086029460846FAF71DFF074666
:1054A00041460846FAF718FF064600E034E0494650
:1054B0000846FAF711FF044651460846FAF70CFF72
:1054C0002146FAF7B1FE3146FAF700FF3946FAF7FE
:1054D000FDFEFBF751F906460C4629465046FAF701
:1054E000FBFE054641464846FAF7F6FE2946FAF71E
:1054F0009BFE0121FAF760FFFBF73EF93246234697
:10550000FEF78EFE5A46054BFBF709F8FBF747F905
:1055100010990860002044E7022042E766A64C404C
:1055200010B500F0F1F808B10A2010BD782000F0A5
:10553000B1FD10F0FF0F01D0012010BD7820FFF762
:10554000F7FE10F0FF0F01D0022010BD642000F024
:1055500061FD10F0FF0F01D0032010BDFFF766F8CA
:1055600010F0FF0F01D0042010BD1448FFF708FE13
:10557000FFF70CFA10F0FF0F01D0052010BD40F22C
:105580007310FEF72BFF10F0FF0F01D0062010BDA7
:105590006420FFF763F910F0FF0F01D0072010BD62
:1055A00000F0FEFD08B1082010BD012000F058FCFD
:1055B00010F0FF00F8D0092010BD000068000020A6
:1055C0000D494A7A42B1012A08D0022A0FD0032A93
:1055D0000FD04FF0FF307047022200E0042202702B
:1055E000C97C11B11106C90D017000207047082255
:1055F000F5E71022F3E700003C0000200F494A7A4B
:1056000042B1012A09D0022A11D0032A12D04FF048
:10561000FF3070474FF4804201E041F69C720280F7
:10562000C97C11B1C2F34E010180002070474FF4D4
:105630008052F4E74FF40062F1E700003C000020E4
:105640000B49097A39B1012907D002290AD0032967
:105650000BD0002103E0FA2101E04FF4FA71018040
:10566000002070474FF47A71F9E74FF4FA61F6E7DA
:105670003C0000200A49097A41B1012908D00229D9
:105680000AD003290AD04FF0FF307047054900E0E7
:1056900005490160002070470449FAE70449F8E72A
:1056A0003C000020000003430000834233330342E8
:1056B000333383410C49C97A072913D2DFE801F05B
:1056C0001204060A0C0E1000BC2100E062210180C9
:1056D000002070472A21FAE71421F8E70A21F6E7AB
:1056E0000521F4E70021F2E73C000020054991F88C
:1056F000242012B14FF0FF307047C989018000208B
:10570000704700003C0000202DE9FC414C4C8020FB
:105710008DF8000020686B460122817C606800786B
:10572000FDF7D2FA4FF0FF37002832D16420FBF7A3
:105730006DFC00258DF8005020686B460122817CAD
:1057400060680078FDF7C0FA002870D120686B46C9
:105750000622817D60680078FDF750FA002866D146
:105760009DF805009DF80310C007400F01F00101EE
:1057700040EA41019DF801004FF0010600F00100F0
:10578000014309D0012905D0022915D02DA0FDF72C
:10579000ABFD4CE0E67410E020686B460122C17856
:1057A00060680078FDF72AFA40BB9DF8000010F011
:1057B0000F0020D0042822D0E574FF2004F80A0F3F
:1057C0004FF6FF7104F8020C04F8010C6070A18020
:1057D000A0712072A67026766576E572A572E560E6
:1057E00025616561A576E576A5834FF4FA6000F042
:1057F00073FB18B907E01D48FDF776FD17E01CA004
:10580000FDF772FDC6E7022000F088FA78B92A2079
:1058100000F0CAFB58B9322000F0FCFB38B9002078
:10582000FFF786FD18B9002000F0ACFA10B1384639
:10583000BDE8FC81002000F02DFC0020F8E700000E
:105840003C000020556E737570706F727465642033
:10585000736F6674776172652070726F64756374BC
:10586000207265762025642E0A000000647000080E
:1058700048616C662073656E7369746976697479C2
:10588000207061727420666F756E642E0A000000CD
:105890002DE9FF4FDFF89480064685B098F8250083
:1058A00015460F464FF0FF39B0BBAFB3002420E0E0
:1058B000301B102800DD102080B283463A190146C3
:1058C0009246204600F042FC30BB6A4659462046CC
:1058D00000F0D2F800BB50465A466946FAF797FCEA
:1058E00020B16FF0010009B0BDE8F08F04EB0B00B0
:1058F00084B2B442DCD3280A8DF810008DF8115020
:10590000D8F80000444604AB817ED8F80400022297
:105910000078FDF7D9F908B14846E4E7012084F89A
:1059200025000898E0840020DDE700003C0000200E
:105930002DE9F84305464FF0FF39282844D80727BA
:10594000284C00267DB1012000F0FCFA20208DF8C3
:1059500000004FF00108012D17D0052D18D88DF843
:10596000018005201FE0002000F0ECFA8DF80060B7
:105970008DF8017020686B460222817C6068007897
:10598000FDF7A2F900BB267529E08DF80160E8E774
:10599000142D04D802208DF801000A2003E0032012
:1059A0008DF80100142000F0FFFA9DF801006B460D
:1059B00007EB80108DF8010020680222817C60686E
:1059C0000078FDF781F910B14846BDE8F88308205A
:1059D000A072267384F814800020FFF7A9FC002031
:1059E000F3E700003C0000202DE9F843214C064677
:1059F000174694F8240089464FF0FF3890B3A07AF8
:105A000080B320686B460222817A60680078FDF7D7
:105A1000F5F838BBBDF8000045BAB54202D2002007
:105A200038701FE060684188B5EB510F11D92168CB
:105A300000786B46497C0122FDF7E0F890B99DF8AB
:105A40000000C00605D500F041F86FF00100BDE888
:105A5000F8832068F2B24B46C17A60680078FDF79F
:105A6000CDF808B14046F2E7B5FBF6F0401E3870BD
:105A70000020ECE73C000020F8B516000D464FF082
:105A8000FF371FD0104CA17AE1B1010A8DF8001048
:105A9000C0B28DF80100411960684289914211D865
:105AA000216800786B46097E0222FDF70DF948B99E
:105AB0002068EAB23346417D60680078FDF79EF8C1
:105AC000002800D03846F8BD3C000020F8B5564C00
:105AD0004FF0FF36A07A00287DD000258DF80050C9
